{
  "address": "0xd98206114295d553625cFF946D8aEc3aa790db3A",
  "abi": [
    {
      "inputs": [],
      "name": "offset",
      "outputs": [
        {
          "internalType": "uint256",
          "name": "",
          "type": "uint256"
        }
      ],
      "stateMutability": "view",
      "type": "function"
    },
    {
      "inputs": [
        {
          "internalType": "uint256",
          "name": "depth",
          "type": "uint256"
        },
        {
          "internalType": "uint256",
          "name": "width",
          "type": "uint256"
        },
        {
          "internalType": "uint256",
          "name": "count",
          "type": "uint256"
        }
      ],
      "name": "recursiveCall",
      "outputs": [
        {
          "internalType": "uint256",
          "name": "",
          "type": "uint256"
        }
      ],
      "stateMutability": "payable",
      "type": "function"
    },
    {
      "inputs": [
        {
          "internalType": "uint256",
          "name": "",
          "type": "uint256"
        }
      ],
      "name": "store",
      "outputs": [
        {
          "internalType": "uint256",
          "name": "",
          "type": "uint256"
        }
      ],
      "stateMutability": "view",
      "type": "function"
    }
  ],
  "transactionHash": "0xf627a12e658322175feb518e9171bb1cd8f8ac8b8dcd413798babaab1c793faa",
  "args": [],
  "numDeployments": 4,
  "solcInputHash": "513a012cc285ae876bd0e25616891e26",
  "bytecode": "0x608060405234801561001057600080fd5b506102a2806100206000396000f3fe6080604052600436106100345760003560e01c80636057361d14610039578063d555654414610078578063d5d97d141461008e575b600080fd5b34801561004557600080fd5b506100666100543660046101dc565b60006020819052908152604090205481565b60405190815260200160405180910390f35b34801561008457600080fd5b5061006660015481565b61006661009c3660046101f5565b6000806100a98386610237565b905060005b8181116100fa57600180549060006100c583610250565b909155506100d69050816001610269565b600154600090815260208190526040902055806100f281610250565b9150506100ae565b50600083156101c85760005b8581116101c6573063d5d97d1434898961012160018b610237565b6040517fffffffff0000000000000000000000000000000000000000000000000000000060e087901b16815260048101939093526024830191909152604482015260640160206040518083038185885af1158015610183573d6000803e3d6000fd5b50505050506040513d601f19601f820116820180604052508101906101a8919061027c565b6101b29083610269565b9150806101be81610250565b915050610106565b505b6101d28183610269565b9695505050505050565b6000602082840312156101ee57600080fd5b5035919050565b60008060006060848603121561020a57600080fd5b505081359360208301359350604090920135919050565b634e487b7160e01b600052601160045260246000fd5b8181038181111561024a5761024a610221565b92915050565b60006001820161026257610262610221565b5060010190565b8082018082111561024a5761024a610221565b60006020828403121561028e57600080fd5b505191905056fea164736f6c6343000813000a",
  "devdoc": {
    "details": "A contract with a collection of methods for testing certain edge cases related to gas. This is primarily used by the bundler to verify that its UserOperation gas estimates are working.",
    "kind": "dev",
    "methods": {
      "recursiveCall(uint256,uint256,uint256)": {
        "details": "This method allows you to run a recursive call where each nested call uses more gas than its parent.",
        "params": {
          "count": "Specifies a countdown that decrements by 1 at each call.",
          "depth": "Specifies the number of recursive calls to make.",
          "width": "Specifies the number of sibling calls at each depth to make."
        },
        "returns": {
          "_0": "sum Specifies the total writes made to the store."
        }
      }
    },
    "title": "TestGas",
    "version": 1
  },
  "userdoc": {
    "kind": "user",
    "methods": {},
    "version": 1
  },
  "storageLayout": {
    "storage": [
      {
        "astId": 4309,
        "contract": "contracts/test/TestGas.sol:TestGas",
        "label": "store",
        "offset": 0,
        "slot": "0",
        "type": "t_mapping(t_uint256,t_uint256)"
      },
      {
        "astId": 4311,
        "contract": "contracts/test/TestGas.sol:TestGas",
        "label": "offset",
        "offset": 0,
        "slot": "1",
        "type": "t_uint256"
      }
    ],
    "types": {
      "t_mapping(t_uint256,t_uint256)": {
        "encoding": "mapping",
        "key": "t_uint256",
        "label": "mapping(uint256 => uint256)",
        "numberOfBytes": "32",
        "value": "t_uint256"
      },
      "t_uint256": {
        "encoding": "inplace",
        "label": "uint256",
        "numberOfBytes": "32"
      }
    }
  }
}