{
  "address": "0x9D6AC51b972544251Fcc0F2902e633E3f9BD3f29",
  "abi": [
    {
      "inputs": [
        {
          "internalType": "contract IEntryPoint",
          "name": "_entryPoint",
          "type": "address"
        },
        {
          "internalType": "address",
          "name": "_owner",
          "type": "address"
        }
      ],
      "stateMutability": "nonpayable",
      "type": "constructor"
    },
    {
      "anonymous": false,
      "inputs": [
        {
          "indexed": true,
          "internalType": "address",
          "name": "previousOwner",
          "type": "address"
        },
        {
          "indexed": true,
          "internalType": "address",
          "name": "newOwner",
          "type": "address"
        }
      ],
      "name": "OwnershipTransferred",
      "type": "event"
    },
    {
      "inputs": [],
      "name": "POST_OP_GAS",
      "outputs": [
        {
          "internalType": "uint256",
          "name": "",
          "type": "uint256"
        }
      ],
      "stateMutability": "view",
      "type": "function"
    },
    {
      "inputs": [
        {
          "internalType": "uint32",
          "name": "unstakeDelaySec",
          "type": "uint32"
        }
      ],
      "name": "addStake",
      "outputs": [],
      "stateMutability": "payable",
      "type": "function"
    },
    {
      "inputs": [],
      "name": "deposit",
      "outputs": [],
      "stateMutability": "payable",
      "type": "function"
    },
    {
      "inputs": [],
      "name": "entryPoint",
      "outputs": [
        {
          "internalType": "contract IEntryPoint",
          "name": "",
          "type": "address"
        }
      ],
      "stateMutability": "view",
      "type": "function"
    },
    {
      "inputs": [],
      "name": "getDeposit",
      "outputs": [
        {
          "internalType": "uint256",
          "name": "",
          "type": "uint256"
        }
      ],
      "stateMutability": "view",
      "type": "function"
    },
    {
      "inputs": [
        {
          "components": [
            {
              "internalType": "address",
              "name": "sender",
              "type": "address"
            },
            {
              "internalType": "uint256",
              "name": "nonce",
              "type": "uint256"
            },
            {
              "internalType": "bytes",
              "name": "initCode",
              "type": "bytes"
            },
            {
              "internalType": "bytes",
              "name": "callData",
              "type": "bytes"
            },
            {
              "internalType": "uint256",
              "name": "callGasLimit",
              "type": "uint256"
            },
            {
              "internalType": "uint256",
              "name": "verificationGasLimit",
              "type": "uint256"
            },
            {
              "internalType": "uint256",
              "name": "preVerificationGas",
              "type": "uint256"
            },
            {
              "internalType": "uint256",
              "name": "maxFeePerGas",
              "type": "uint256"
            },
            {
              "internalType": "uint256",
              "name": "maxPriorityFeePerGas",
              "type": "uint256"
            },
            {
              "internalType": "bytes",
              "name": "paymasterAndData",
              "type": "bytes"
            },
            {
              "internalType": "bytes",
              "name": "signature",
              "type": "bytes"
            }
          ],
          "internalType": "struct UserOperation",
          "name": "userOp",
          "type": "tuple"
        },
        {
          "internalType": "uint48",
          "name": "validUntil",
          "type": "uint48"
        },
        {
          "internalType": "uint48",
          "name": "validAfter",
          "type": "uint48"
        },
        {
          "internalType": "address",
          "name": "erc20Token",
          "type": "address"
        },
        {
          "internalType": "uint256",
          "name": "exchangeRate",
          "type": "uint256"
        }
      ],
      "name": "getHash",
      "outputs": [
        {
          "internalType": "bytes32",
          "name": "",
          "type": "bytes32"
        }
      ],
      "stateMutability": "view",
      "type": "function"
    },
    {
      "inputs": [],
      "name": "owner",
      "outputs": [
        {
          "internalType": "address",
          "name": "",
          "type": "address"
        }
      ],
      "stateMutability": "view",
      "type": "function"
    },
    {
      "inputs": [
        {
          "internalType": "bytes",
          "name": "paymasterAndData",
          "type": "bytes"
        }
      ],
      "name": "parsePaymasterAndData",
      "outputs": [
        {
          "internalType": "uint48",
          "name": "validUntil",
          "type": "uint48"
        },
        {
          "internalType": "uint48",
          "name": "validAfter",
          "type": "uint48"
        },
        {
          "internalType": "address",
          "name": "erc20Token",
          "type": "address"
        },
        {
          "internalType": "uint256",
          "name": "exchangeRate",
          "type": "uint256"
        },
        {
          "internalType": "bytes",
          "name": "signature",
          "type": "bytes"
        }
      ],
      "stateMutability": "pure",
      "type": "function"
    },
    {
      "inputs": [
        {
          "internalType": "enum IPaymaster.PostOpMode",
          "name": "mode",
          "type": "uint8"
        },
        {
          "internalType": "bytes",
          "name": "context",
          "type": "bytes"
        },
        {
          "internalType": "uint256",
          "name": "actualGasCost",
          "type": "uint256"
        }
      ],
      "name": "postOp",
      "outputs": [],
      "stateMutability": "nonpayable",
      "type": "function"
    },
    {
      "inputs": [],
      "name": "renounceOwnership",
      "outputs": [],
      "stateMutability": "nonpayable",
      "type": "function"
    },
    {
      "inputs": [
        {
          "internalType": "address",
          "name": "_vault",
          "type": "address"
        }
      ],
      "name": "setVault",
      "outputs": [],
      "stateMutability": "nonpayable",
      "type": "function"
    },
    {
      "inputs": [
        {
          "internalType": "address",
          "name": "_verifier",
          "type": "address"
        }
      ],
      "name": "setVerifier",
      "outputs": [],
      "stateMutability": "nonpayable",
      "type": "function"
    },
    {
      "inputs": [
        {
          "internalType": "address",
          "name": "newOwner",
          "type": "address"
        }
      ],
      "name": "transferOwnership",
      "outputs": [],
      "stateMutability": "nonpayable",
      "type": "function"
    },
    {
      "inputs": [],
      "name": "unlockStake",
      "outputs": [],
      "stateMutability": "nonpayable",
      "type": "function"
    },
    {
      "inputs": [
        {
          "components": [
            {
              "internalType": "address",
              "name": "sender",
              "type": "address"
            },
            {
              "internalType": "uint256",
              "name": "nonce",
              "type": "uint256"
            },
            {
              "internalType": "bytes",
              "name": "initCode",
              "type": "bytes"
            },
            {
              "internalType": "bytes",
              "name": "callData",
              "type": "bytes"
            },
            {
              "internalType": "uint256",
              "name": "callGasLimit",
              "type": "uint256"
            },
            {
              "internalType": "uint256",
              "name": "verificationGasLimit",
              "type": "uint256"
            },
            {
              "internalType": "uint256",
              "name": "preVerificationGas",
              "type": "uint256"
            },
            {
              "internalType": "uint256",
              "name": "maxFeePerGas",
              "type": "uint256"
            },
            {
              "internalType": "uint256",
              "name": "maxPriorityFeePerGas",
              "type": "uint256"
            },
            {
              "internalType": "bytes",
              "name": "paymasterAndData",
              "type": "bytes"
            },
            {
              "internalType": "bytes",
              "name": "signature",
              "type": "bytes"
            }
          ],
          "internalType": "struct UserOperation",
          "name": "userOp",
          "type": "tuple"
        },
        {
          "internalType": "bytes32",
          "name": "userOpHash",
          "type": "bytes32"
        },
        {
          "internalType": "uint256",
          "name": "maxCost",
          "type": "uint256"
        }
      ],
      "name": "validatePaymasterUserOp",
      "outputs": [
        {
          "internalType": "bytes",
          "name": "context",
          "type": "bytes"
        },
        {
          "internalType": "uint256",
          "name": "validationData",
          "type": "uint256"
        }
      ],
      "stateMutability": "nonpayable",
      "type": "function"
    },
    {
      "inputs": [],
      "name": "vault",
      "outputs": [
        {
          "internalType": "address",
          "name": "",
          "type": "address"
        }
      ],
      "stateMutability": "view",
      "type": "function"
    },
    {
      "inputs": [],
      "name": "verifier",
      "outputs": [
        {
          "internalType": "address",
          "name": "",
          "type": "address"
        }
      ],
      "stateMutability": "view",
      "type": "function"
    },
    {
      "inputs": [
        {
          "internalType": "address payable",
          "name": "withdrawAddress",
          "type": "address"
        }
      ],
      "name": "withdrawStake",
      "outputs": [],
      "stateMutability": "nonpayable",
      "type": "function"
    },
    {
      "inputs": [
        {
          "internalType": "address payable",
          "name": "withdrawAddress",
          "type": "address"
        },
        {
          "internalType": "uint256",
          "name": "amount",
          "type": "uint256"
        }
      ],
      "name": "withdrawTo",
      "outputs": [],
      "stateMutability": "nonpayable",
      "type": "function"
    }
  ],
  "transactionHash": "0x261e98ae97188da93de7ee328da317f65672a781eac600b08f753e671c495fcd",
  "args": [
    "0x5FF137D4b0FDCD49DcA30c7CF57E578a026d2789",
    "0xf6731De143cd04d7e9aEBe3B1b00aDBBd4710249"
  ],
  "numDeployments": 2,
  "solcInputHash": "f90079439c320b7d02bfbf83382552a9",
  "bytecode": "0x60a06040523480156200001157600080fd5b5060405162001a2238038062001a228339810160408190526200003491620000f1565b81620000403362000088565b6001600160a01b0316608052620000578162000088565b600180546001600160a01b039092166001600160a01b03199283168117909155600280549092161790555062000130565b600080546001600160a01b038381166001600160a01b0319831681178455604051919092169283917f8be0079c531659141344cd1fd0a4f28419497f9722a3daafe3b4186f6b6457e09190a35050565b6001600160a01b0381168114620000ee57600080fd5b50565b600080604083850312156200010557600080fd5b82516200011281620000d8565b60208401519092506200012581620000d8565b809150509250929050565b6080516118a56200017d600039600081816102c0015281816103da01528181610471015281816105ea0152818161067e015281816106f50152818161078201526109f401526118a56000f3fe6080604052600436106101445760003560e01c8063a9a23409116100c0578063c399ec8811610074578063f2fde38b11610059578063f2fde38b1461034a578063f465c77e1461036a578063fbfa77cf1461039857600080fd5b8063c399ec881461032d578063d0e30db01461034257600080fd5b8063b8202d8f116100a5578063b8202d8f146102e2578063bb9fe6bf146102f8578063c23a5cea1461030d57600080fd5b8063a9a234091461028e578063b0d691fe146102ae57600080fd5b80635437988d11610117578063715018a6116100fc578063715018a6146102295780638da5cb5b1461023e57806394d4ad601461025c57600080fd5b80635437988d146101e95780636817031b1461020957600080fd5b80630396cb6014610149578063205c28781461015e578063290da2ad1461017e5780632b7ac3f3146101b1575b600080fd5b61015c610157366004611311565b6103b8565b005b34801561016a57600080fd5b5061015c610179366004611353565b610443565b34801561018a57600080fd5b5061019e6101993660046113b3565b6104b5565b6040519081526020015b60405180910390f35b3480156101bd57600080fd5b506001546101d1906001600160a01b031681565b6040516001600160a01b0390911681526020016101a8565b3480156101f557600080fd5b5061015c61020436600461142c565b6104fd565b34801561021557600080fd5b5061015c61022436600461142c565b610534565b34801561023557600080fd5b5061015c61056b565b34801561024a57600080fd5b506000546001600160a01b03166101d1565b34801561026857600080fd5b5061027c61027736600461148b565b61057f565b6040516101a8969594939291906114cd565b34801561029a57600080fd5b5061015c6102a9366004611530565b6105c6565b3480156102ba57600080fd5b506101d17f000000000000000000000000000000000000000000000000000000000000000081565b3480156102ee57600080fd5b5061019e6188b881565b34801561030457600080fd5b5061015c6105e0565b34801561031957600080fd5b5061015c61032836600461142c565b610657565b34801561033957600080fd5b5061019e6106dd565b61015c61076d565b34801561035657600080fd5b5061015c61036536600461142c565b6107cf565b34801561037657600080fd5b5061038a610385366004611590565b610864565b6040516101a892919061162e565b3480156103a457600080fd5b506002546101d1906001600160a01b031681565b6103c0610888565b604051621cb65b60e51b815263ffffffff821660048201527f00000000000000000000000000000000000000000000000000000000000000006001600160a01b031690630396cb609034906024016000604051808303818588803b15801561042757600080fd5b505af115801561043b573d6000803e3d6000fd5b505050505050565b61044b610888565b60405163040b850f60e31b81526001600160a01b038381166004830152602482018390527f0000000000000000000000000000000000000000000000000000000000000000169063205c287890604401600060405180830381600087803b15801561042757600080fd5b60006104c0866108e2565b4630878787876040516020016104dc9796959493929190611650565b60405160208183030381529060405280519060200120905095945050505050565b610505610888565b6001805473ffffffffffffffffffffffffffffffffffffffff19166001600160a01b0392909216919091179055565b61053c610888565b6002805473ffffffffffffffffffffffffffffffffffffffff19166001600160a01b0392909216919091179055565b610573610888565b61057d600061098c565b565b6000808080368161059460946014898b6116a7565b8101906105a191906116d1565b929850909650945092506105b8876094818b6116a7565b915091509295509295509295565b6105ce6109e9565b6105da84848484610a61565b50505050565b6105e8610888565b7f00000000000000000000000000000000000000000000000000000000000000006001600160a01b031663bb9fe6bf6040518163ffffffff1660e01b8152600401600060405180830381600087803b15801561064357600080fd5b505af11580156105da573d6000803e3d6000fd5b61065f610888565b60405163611d2e7560e11b81526001600160a01b0382811660048301527f0000000000000000000000000000000000000000000000000000000000000000169063c23a5cea90602401600060405180830381600087803b1580156106c257600080fd5b505af11580156106d6573d6000803e3d6000fd5b5050505050565b6040516370a0823160e01b81523060048201526000907f00000000000000000000000000000000000000000000000000000000000000006001600160a01b0316906370a0823190602401602060405180830381865afa158015610744573d6000803e3d6000fd5b505050506040513d601f19601f82011682018060405250810190610768919061171e565b905090565b60405163b760faf960e01b81523060048201527f00000000000000000000000000000000000000000000000000000000000000006001600160a01b03169063b760faf99034906024016000604051808303818588803b1580156106c257600080fd5b6107d7610888565b6001600160a01b0381166108585760405162461bcd60e51b815260206004820152602660248201527f4f776e61626c653a206e6577206f776e657220697320746865207a65726f206160448201527f646472657373000000000000000000000000000000000000000000000000000060648201526084015b60405180910390fd5b6108618161098c565b50565b606060006108706109e9565b61087b858585610b16565b915091505b935093915050565b6000546001600160a01b0316331461057d5760405162461bcd60e51b815260206004820181905260248201527f4f776e61626c653a2063616c6c6572206973206e6f7420746865206f776e6572604482015260640161084f565b6060813560208301356109006108fb6040860186611737565b610d35565b6109106108fb6060870187611737565b604080516001600160a01b039095166020860152840192909252606083015260808281019190915283013560a08281019190915283013560c08281019190915283013560e08281019190915283013561010082810191909152830135610120820152610140016040516020818303038152906040529050919050565b600080546001600160a01b0383811673ffffffffffffffffffffffffffffffffffffffff19831681178455604051919092169283917f8be0079c531659141344cd1fd0a4f28419497f9722a3daafe3b4186f6b6457e09190a35050565b336001600160a01b037f0000000000000000000000000000000000000000000000000000000000000000161461057d5760405162461bcd60e51b815260206004820152601560248201527f53656e646572206e6f7420456e747279506f696e740000000000000000000000604482015260640161084f565b600080808080610a738789018961177e565b945094509450945094506000818303610a8d575081610a9c565b610a9983488401610d48565b90505b6000670de0b6b3a764000085610ab4846188b86117e5565b610abe908b6117fc565b610ac891906117e5565b610ad2919061180f565b905060028b6002811115610ae857610ae8611831565b14610b0957600254610b09906001600160a01b03888116918a911684610d62565b5050505050505050505050565b60606000808080803681610b316102776101208d018d611737565b9550955095509550955095508181905060401480610b4f5750604181145b610bc3576040805162461bcd60e51b81526020600482015260248101919091527f566572696679696e675061796d61737465723a20696e76616c6964207369676e60448201527f6174757265206c656e67746820696e207061796d6173746572416e6444617461606482015260840161084f565b6000610c28610bd58d898989896104b5565b6040517f19457468657265756d205369676e6564204d6573736167653a0a3332000000006020820152603c8101829052600090605c01604051602081830303815290604052805190602001209050919050565b604080516020810190915260008152995090506001600160a01b03851615610ca357610c5760208d018d61142c565b604080516001600160a01b039283166020820152918716908201526060810185905260e08d013560808201526101008d013560a082015260c00160405160208183030381529060405298505b610ce38184848080601f016020809104026020016040519081016040528093929190818152602001838380828437600092019190915250610dd192505050565b6001546001600160a01b03908116911614610d155788610d0560018989610df5565b9850985050505050505050610880565b88610d2260008989610df5565b9850985050505050505050935093915050565b6000604051828085833790209392505050565b6000818310610d575781610d59565b825b90505b92915050565b604080516001600160a01b0385811660248301528416604482015260648082018490528251808303909101815260849091019091526020810180517bffffffffffffffffffffffffffffffffffffffffffffffffffffffff166323b872dd60e01b1790526105da908590610e2d565b6000806000610de08585610f17565b91509150610ded81610f5c565b509392505050565b600060d08265ffffffffffff16901b60a08465ffffffffffff16901b85610e1d576000610e20565b60015b60ff161717949350505050565b6000610e82826040518060400160405280602081526020017f5361666545524332303a206c6f772d6c6576656c2063616c6c206661696c6564815250856001600160a01b03166110a69092919063ffffffff16565b805190915015610f125780806020019051810190610ea09190611847565b610f125760405162461bcd60e51b815260206004820152602a60248201527f5361666545524332303a204552433230206f7065726174696f6e20646964206e60448201527f6f74207375636365656400000000000000000000000000000000000000000000606482015260840161084f565b505050565b6000808251604103610f4d5760208301516040840151606085015160001a610f41878285856110bd565b94509450505050610f55565b506000905060025b9250929050565b6000816004811115610f7057610f70611831565b03610f785750565b6001816004811115610f8c57610f8c611831565b03610fd95760405162461bcd60e51b815260206004820152601860248201527f45434453413a20696e76616c6964207369676e61747572650000000000000000604482015260640161084f565b6002816004811115610fed57610fed611831565b0361103a5760405162461bcd60e51b815260206004820152601f60248201527f45434453413a20696e76616c6964207369676e6174757265206c656e67746800604482015260640161084f565b600381600481111561104e5761104e611831565b036108615760405162461bcd60e51b815260206004820152602260248201527f45434453413a20696e76616c6964207369676e6174757265202773272076616c604482015261756560f01b606482015260840161084f565b60606110b58484600085611181565b949350505050565b6000807f7fffffffffffffffffffffffffffffff5d576e7357a4501ddfe92f46681b20a08311156110f45750600090506003611178565b6040805160008082526020820180845289905260ff881692820192909252606081018690526080810185905260019060a0016020604051602081039080840390855afa158015611148573d6000803e3d6000fd5b5050604051601f1901519150506001600160a01b03811661117157600060019250925050611178565b9150600090505b94509492505050565b6060824710156111f95760405162461bcd60e51b815260206004820152602660248201527f416464726573733a20696e73756666696369656e742062616c616e636520666f60448201527f722063616c6c0000000000000000000000000000000000000000000000000000606482015260840161084f565b600080866001600160a01b031685876040516112159190611869565b60006040518083038185875af1925050503d8060008114611252576040519150601f19603f3d011682016040523d82523d6000602084013e611257565b606091505b509150915061126887838387611273565b979650505050505050565b606083156112e25782516000036112db576001600160a01b0385163b6112db5760405162461bcd60e51b815260206004820152601d60248201527f416464726573733a2063616c6c20746f206e6f6e2d636f6e7472616374000000604482015260640161084f565b50816110b5565b6110b583838151156112f75781518083602001fd5b8060405162461bcd60e51b815260040161084f9190611885565b60006020828403121561132357600080fd5b813563ffffffff8116811461133757600080fd5b9392505050565b6001600160a01b038116811461086157600080fd5b6000806040838503121561136657600080fd5b82356113718161133e565b946020939093013593505050565b6000610160828403121561139257600080fd5b50919050565b803565ffffffffffff811681146113ae57600080fd5b919050565b600080600080600060a086880312156113cb57600080fd5b853567ffffffffffffffff8111156113e257600080fd5b6113ee8882890161137f565b9550506113fd60208701611398565b935061140b60408701611398565b9250606086013561141b8161133e565b949793965091946080013592915050565b60006020828403121561143e57600080fd5b81356113378161133e565b60008083601f84011261145b57600080fd5b50813567ffffffffffffffff81111561147357600080fd5b602083019150836020828501011115610f5557600080fd5b6000806020838503121561149e57600080fd5b823567ffffffffffffffff8111156114b557600080fd5b6114c185828601611449565b90969095509350505050565b600065ffffffffffff80891683528088166020840152506001600160a01b038616604083015284606083015260a060808301528260a0830152828460c0840137600060c0848401015260c0601f19601f8501168301019050979650505050505050565b6000806000806060858703121561154657600080fd5b84356003811061155557600080fd5b9350602085013567ffffffffffffffff81111561157157600080fd5b61157d87828801611449565b9598909750949560400135949350505050565b6000806000606084860312156115a557600080fd5b833567ffffffffffffffff8111156115bc57600080fd5b6115c88682870161137f565b9660208601359650604090950135949350505050565b60005b838110156115f95781810151838201526020016115e1565b50506000910152565b6000815180845261161a8160208601602086016115de565b601f01601f19169290920160200192915050565b6040815260006116416040830185611602565b90508260208301529392505050565b60e08152600061166360e083018a611602565b6020830198909852506001600160a01b03958616604082015265ffffffffffff948516606082015292909316608083015290921660a083015260c090910152919050565b600080858511156116b757600080fd5b838611156116c457600080fd5b5050820193919092039150565b600080600080608085870312156116e757600080fd5b6116f085611398565b93506116fe60208601611398565b9250604085013561170e8161133e565b9396929550929360600135925050565b60006020828403121561173057600080fd5b5051919050565b6000808335601e1984360301811261174e57600080fd5b83018035915067ffffffffffffffff82111561176957600080fd5b602001915036819003821315610f5557600080fd5b600080600080600060a0868803121561179657600080fd5b85356117a18161133e565b945060208601356117b18161133e565b94979496505050506040830135926060810135926080909101359150565b634e487b7160e01b600052601160045260246000fd5b8082028115828204841417610d5c57610d5c6117cf565b80820180821115610d5c57610d5c6117cf565b60008261182c57634e487b7160e01b600052601260045260246000fd5b500490565b634e487b7160e01b600052602160045260246000fd5b60006020828403121561185957600080fd5b8151801515811461133757600080fd5b6000825161187b8184602087016115de565b9190910192915050565b602081526000610d59602083018461160256fea164736f6c6343000813000a",
  "devdoc": {
    "kind": "dev",
    "methods": {
      "addStake(uint32)": {
        "params": {
          "unstakeDelaySec": "- the unstake delay for this paymaster. Can only be increased."
        }
      },
      "owner()": {
        "details": "Returns the address of the current owner."
      },
      "postOp(uint8,bytes,uint256)": {
        "params": {
          "actualGasCost": "- actual gas used so far (without this postOp call).",
          "context": "- the context value returned by validatePaymasterUserOp",
          "mode": "enum with the following options:      opSucceeded - user operation succeeded.      opReverted  - user op reverted. still has to pay for gas.      postOpReverted - user op succeeded, but caused postOp (in mode=opSucceeded) to revert.                       Now this is the 2nd call, after user's op was deliberately reverted."
        }
      },
      "renounceOwnership()": {
        "details": "Leaves the contract without owner. It will not be possible to call `onlyOwner` functions anymore. Can only be called by the current owner. NOTE: Renouncing ownership will leave the contract without an owner, thereby removing any functionality that is only available to the owner."
      },
      "transferOwnership(address)": {
        "details": "Transfers ownership of the contract to a new account (`newOwner`). Can only be called by the current owner."
      },
      "validatePaymasterUserOp((address,uint256,bytes,bytes,uint256,uint256,uint256,uint256,uint256,bytes,bytes),bytes32,uint256)": {
        "params": {
          "maxCost": "the maximum cost of this transaction (based on maximum gas and gas price from userOp)",
          "userOp": "the user operation",
          "userOpHash": "hash of the user's request data."
        },
        "returns": {
          "context": "value to send to a postOp      zero length to signify postOp is not required.",
          "validationData": "signature and time-range of this operation, encoded the same as the return value of validateUserOperation      <20-byte> sigAuthorizer - 0 for valid signature, 1 to mark signature failure,         otherwise, an address of an \"authorizer\" contract.      <6-byte> validUntil - last timestamp this operation is valid. 0 for \"indefinite\"      <6-byte> validAfter - first timestamp this operation is valid      Note that the validation code cannot use block.timestamp (or block.number) directly."
        }
      },
      "withdrawStake(address)": {
        "params": {
          "withdrawAddress": "the address to send withdrawn value."
        }
      },
      "withdrawTo(address,uint256)": {
        "params": {
          "amount": "to withdraw",
          "withdrawAddress": "target to send to"
        }
      }
    },
    "version": 1
  },
  "userdoc": {
    "kind": "user",
    "methods": {
      "addStake(uint32)": {
        "notice": "add stake for this paymaster. This method can also carry eth value to add to the current stake."
      },
      "deposit()": {
        "notice": "add a deposit for this paymaster, used for paying for transaction fees"
      },
      "getDeposit()": {
        "notice": "return current paymaster's deposit on the entryPoint."
      },
      "postOp(uint8,bytes,uint256)": {
        "notice": "post-operation handler. Must verify sender is the entryPoint"
      },
      "unlockStake()": {
        "notice": "unlock the stake, in order to withdraw it. The paymaster can't serve requests once unlocked, until it calls addStake again"
      },
      "validatePaymasterUserOp((address,uint256,bytes,bytes,uint256,uint256,uint256,uint256,uint256,bytes,bytes),bytes32,uint256)": {
        "notice": "payment validation: check if paymaster agrees to pay. Must verify sender is the entryPoint. Revert to reject this request. Note that bundlers will reject this method if it changes the state, unless the paymaster is trusted (whitelisted) The paymaster pre-pays using its deposit, and receive back a refund after the postOp method returns."
      },
      "withdrawStake(address)": {
        "notice": "withdraw the entire paymaster's stake. stake must be unlocked first (and then wait for the unstakeDelay to be over)"
      },
      "withdrawTo(address,uint256)": {
        "notice": "withdraw value from the deposit"
      }
    },
    "notice": "A paymaster based on the eth-infinitism sample VerifyingPaymaster contract. It has the same functionality as the sample, but with added support for withdrawing ERC20 tokens. All withdrawn tokens will be transferred to the owner address. Note that the off-chain signer should have a strategy in place to handle a failed token withdrawal. See account-abstraction/contracts/samples/VerifyingPaymaster.sol for detailed comments.",
    "version": 1
  },
  "storageLayout": {
    "storage": [
      {
        "astId": 7,
        "contract": "contracts/VerifyingPaymaster.sol:VerifyingPaymaster",
        "label": "_owner",
        "offset": 0,
        "slot": "0",
        "type": "t_address"
      },
      {
        "astId": 3987,
        "contract": "contracts/VerifyingPaymaster.sol:VerifyingPaymaster",
        "label": "verifier",
        "offset": 0,
        "slot": "1",
        "type": "t_address"
      },
      {
        "astId": 3989,
        "contract": "contracts/VerifyingPaymaster.sol:VerifyingPaymaster",
        "label": "vault",
        "offset": 0,
        "slot": "2",
        "type": "t_address"
      }
    ],
    "types": {
      "t_address": {
        "encoding": "inplace",
        "label": "address",
        "numberOfBytes": "20"
      }
    }
  }
}