{
  "address": "0x559e3c6A74678FDBE1Fcc54153A8D7Dd7049FBCA",
  "abi": [
    {
      "inputs": [
        {
          "components": [
            {
              "internalType": "address",
              "name": "sender",
              "type": "address"
            },
            {
              "internalType": "uint256",
              "name": "nonce",
              "type": "uint256"
            },
            {
              "internalType": "bytes",
              "name": "initCode",
              "type": "bytes"
            },
            {
              "internalType": "bytes",
              "name": "callData",
              "type": "bytes"
            },
            {
              "internalType": "uint256",
              "name": "callGasLimit",
              "type": "uint256"
            },
            {
              "internalType": "uint256",
              "name": "verificationGasLimit",
              "type": "uint256"
            },
            {
              "internalType": "uint256",
              "name": "preVerificationGas",
              "type": "uint256"
            },
            {
              "internalType": "uint256",
              "name": "maxFeePerGas",
              "type": "uint256"
            },
            {
              "internalType": "uint256",
              "name": "maxPriorityFeePerGas",
              "type": "uint256"
            },
            {
              "internalType": "bytes",
              "name": "paymasterAndData",
              "type": "bytes"
            },
            {
              "internalType": "bytes",
              "name": "signature",
              "type": "bytes"
            }
          ],
          "internalType": "struct UserOperation[]",
          "name": "ops",
          "type": "tuple[]"
        },
        {
          "internalType": "address payable",
          "name": "beneficiary",
          "type": "address"
        }
      ],
      "name": "handleOps",
      "outputs": [],
      "stateMutability": "nonpayable",
      "type": "function"
    }
  ],
  "transactionHash": "0xe0da702935b808ed17a8350a3f1c47580d879a82239ddd6a4a28c521c7242d51",
  "args": [],
  "numDeployments": 1,
  "solcInputHash": "601a0182556d34125ed0da1d86678797",
  "bytecode": "0x608060405234801561001057600080fd5b506001600055610165806100256000396000f3fe608060405234801561001057600080fd5b506004361061002b5760003560e01c80631fad948c14610030575b600080fd5b61004361003e3660046100b9565b610045565b005b61004d61005c565b6100576001600055565b505050565b6002600054036100b25760405162461bcd60e51b815260206004820152601f60248201527f5265656e7472616e637947756172643a207265656e7472616e742063616c6c00604482015260640160405180910390fd5b6002600055565b6000806000604084860312156100ce57600080fd5b833567ffffffffffffffff808211156100e657600080fd5b818601915086601f8301126100fa57600080fd5b81358181111561010957600080fd5b8760208260051b850101111561011e57600080fd5b6020928301955093505084013573ffffffffffffffffffffffffffffffffffffffff8116811461014d57600080fd5b80915050925092509256fea164736f6c6343000813000a",
  "devdoc": {
    "kind": "dev",
    "methods": {},
    "version": 1
  },
  "userdoc": {
    "kind": "user",
    "methods": {},
    "notice": "A contract used by ERC-4337 bundlers along with Arbitrum's NodeInterface precompile to determine the PreVerificationGas of a UserOperation. All interfaces should match the EntryPoint for consistency but with a noop implementation. This allows us to get as close to the actual L1 callData cost as possible.",
    "version": 1
  },
  "storageLayout": {
    "storage": [
      {
        "astId": 10,
        "contract": "contracts/arbitrum/ERC4337GasHelper.sol:ERC4337GasHelper",
        "label": "_status",
        "offset": 0,
        "slot": "0",
        "type": "t_uint256"
      }
    ],
    "types": {
      "t_uint256": {
        "encoding": "inplace",
        "label": "uint256",
        "numberOfBytes": "32"
      }
    }
  }
}