{
  "address": "0xfcbf563e1B6DA0b8fF90dB133c93E0792E74c551",
  "abi": [
    {
      "stateMutability": "payable",
      "type": "fallback"
    },
    {
      "inputs": [
        {
          "internalType": "uint256[2]",
          "name": "q",
          "type": "uint256[2]"
        },
        {
          "internalType": "bytes32",
          "name": "_hash",
          "type": "bytes32"
        },
        {
          "internalType": "bytes",
          "name": "_signature",
          "type": "bytes"
        }
      ],
      "name": "validateSignature",
      "outputs": [
        {
          "internalType": "bool",
          "name": "",
          "type": "bool"
        }
      ],
      "stateMutability": "view",
      "type": "function"
    },
    {
      "inputs": [
        {
          "components": [
            {
              "internalType": "address",
              "name": "sender",
              "type": "address"
            },
            {
              "internalType": "uint256",
              "name": "nonce",
              "type": "uint256"
            },
            {
              "internalType": "bytes",
              "name": "initCode",
              "type": "bytes"
            },
            {
              "internalType": "bytes",
              "name": "callData",
              "type": "bytes"
            },
            {
              "internalType": "uint256",
              "name": "callGasLimit",
              "type": "uint256"
            },
            {
              "internalType": "uint256",
              "name": "verificationGasLimit",
              "type": "uint256"
            },
            {
              "internalType": "uint256",
              "name": "preVerificationGas",
              "type": "uint256"
            },
            {
              "internalType": "uint256",
              "name": "maxFeePerGas",
              "type": "uint256"
            },
            {
              "internalType": "uint256",
              "name": "maxPriorityFeePerGas",
              "type": "uint256"
            },
            {
              "internalType": "bytes",
              "name": "paymasterAndData",
              "type": "bytes"
            },
            {
              "internalType": "bytes",
              "name": "signature",
              "type": "bytes"
            }
          ],
          "internalType": "struct UserOperation",
          "name": "userOp",
          "type": "tuple"
        },
        {
          "internalType": "bytes32",
          "name": "userOpHash",
          "type": "bytes32"
        },
        {
          "internalType": "uint256",
          "name": "missingAccountFunds",
          "type": "uint256"
        }
      ],
      "name": "validateUserOp",
      "outputs": [
        {
          "internalType": "uint256",
          "name": "validationData",
          "type": "uint256"
        }
      ],
      "stateMutability": "nonpayable",
      "type": "function"
    },
    {
      "stateMutability": "payable",
      "type": "receive"
    }
  ],
  "transactionHash": "0x42d99c65713f4a0c434d2818288787d34497a0e097084b181f5d44a789bff950",
  "args": [],
  "numDeployments": 2,
  "solcInputHash": "f7ab4371c3919d60c1f8647c237d1717",
  "bytecode": "0x608060405234801561001057600080fd5b5061128c806100206000396000f3fe60806040526004361061002a5760003560e01c80633a871cdd14610033578063c1a784101461006657005b3661003157005b005b34801561003f57600080fd5b5061005361004e366004610d3c565b610096565b6040519081526020015b60405180910390f35b34801561007257600080fd5b50610086610081366004610ec5565b61012c565b604051901515815260200161005d565b600080806100a8610140870187610f1d565b8101906100b59190610f6b565b915091506100c482868361012c565b6100cd57600192505b8315610122576040516000908190339087908381818185875af1925050503d8060008114610117576040519150601f19603f3d011682016040523d82523d6000602084013e61011c565b606091505b50505050505b50505b9392505050565b60008060008060008086806020019051810190610149919061102e565b945094509450945094506000806101808a60405160200161016c91815260200190565b60405160208183030381529060405261028c565b90506000848285604051602001610199939291906110e1565b60405160208183030381529060405290506002816040516101ba9190611124565b602060405180830381855afa1580156101d7573d6000803e3d6000fd5b5050506040513d601f19601f820116820180604052508101906101fa9190611140565b92505050600060028583604051602001610215929190611159565b60408051601f198184030181529082905261022f91611124565b602060405180830381855afa15801561024c573d6000803e3d6000fd5b5050506040513d601f19601f8201168201806040525081019061026f9190611140565b905061027d8b8888846103c8565b9b9a5050505050505050505050565b606081516000036102ab57505060408051602081019091526000815290565b600060405180606001604052806040815260200161124060409139905060006006845160086102da9190611191565b6102e491906111be565b90506000600685516102f691906111d2565b111561030a5780610306816111e6565b9150505b60008167ffffffffffffffff81111561032557610325610d90565b6040519080825280601f01601f19166020018201604052801561034f576020820181803683370190505b509050600183016020820186875188015b808210156103bb576003820191508151603f8160121c168501518453600184019350603f81600c1c168501518453600184019350603f8160061c168501518453600184019350603f8116850151845350600183019250610360565b5092979650505050505050565b60006103e36001600160601b63ffffffff60c01b03196111ff565b8551118061040c57506104056001600160601b63ffffffff60c01b03196111ff565b6020860151115b1561041957506000610547565b831580610424575082155b8061044c57507bffffffff00000000000000004319055258e8617b0c46353d039cdaae198410155b8061047457507bffffffff00000000000000004319055258e8617b0c46353d039cdaae198310155b1561048157506000610547565b600160601b63ffffffff60c01b03197f5ac635d8aa3a93e7b3ebbd55769886bc651d06b0cc53b0f63bce3c3e27d2604b600160601b63ffffffff60c01b03198088600060200201517fffffffff00000001000000000000000000000000fffffffffffffffffffffffc098851600160601b63ffffffff60c01b031990819080098a510908086020860151600160601b63ffffffff60c01b03199080091461052a57506000610547565b60006105358661054f565b90506105438186868661074b565b9150505b949350505050565b610557610cf2565b6040518060600160405280600081526020016000815260200160008152508160006010811061058857610588611212565b602002015260408051606081019091528083600060200201518152602001836001600281106105b9576105b9611212565b602002015181526020016001815250816001601081106105db576105db611212565b60200201526105f18160015b6020020151610849565b60408201526106108160015b60200201518260025b60200201516108ab565b6060828101919091526040805191820181527f6b17d1f2e12c4247f8bce6e563a440f277037d812deb33a0f4a13945d898c29682527f4fe342e2fe1a7f9b8ee7eb4a7c0f9e162bce33576b315ececbb6406837bf51f56020830152600190820152608082015261068a8160045b6020020151826001610606565b60a082015261069a8160046105fd565b60c08201526106b38160045b6020020151826003610606565b60e08201526106c38160046105e7565b6101008201526106d481600861067d565b6101208201526106e58160086105fd565b6101408201526106f68160086106a6565b610160820152608081015161070d90826008610606565b61018082015261071e81600c61067d565b6101a082015261072f81600c6105fd565b6101c082015261074081600c6106a6565b6101e0820152919050565b6000831580610758575082155b8061078057507bffffffff00000000000000004319055258e8617b0c46353d039cdaae198410155b806107a857507bffffffff00000000000000004319055258e8617b0c46353d039cdaae198310155b156107b557506000610547565b60006107de847bffffffff00000000000000004319055258e8617b0c46353d039cdaae1961091f565b905060007bffffffff00000000000000004319055258e8617b0c46353d039cdaae19828509905060007bffffffff00000000000000004319055258e8617b0c46353d039cdaae1983880990506000806108388a8585610936565b509098149998505050505050505050565b61086d60405180606001604052806000815260200160008152602001600081525090565b6000806000610889856000015186602001518760400151610a22565b6040805160608101825293845260208401929092529082015295945050505050565b6108cf60405180606001604052806000815260200160008152602001600081525090565b60008060006108fa866000015187602001518860400151886000015189602001518a60400151610aee565b6040805160608101825293845260208401929092529082015293505050505b92915050565b6000610125836109306002856111ff565b84610c14565b6000808080806080815b8115610a0457821561097157610957858585610a22565b91965094509250610969858585610a22565b919650945092505b50600c60fc89901c1660fe88901c1780156109e7576109df8585858d856010811061099e5761099e611212565b6020020151518e86601081106109b6576109b6611212565b6020020151602001518f87601081106109d1576109d1611212565b602002015160400151610aee565b919650945092505b600298891b989790971b96816109fc81611228565b925050610940565b610a0f858585610c75565b909750955050505050505b935093915050565b600080600084600003610a3d57506000915081905080610ae5565b600160601b63ffffffff60c01b03198085860981828283097fffffffff00000001000000000000000000000000fffffffffffffffffffffffc099050818788098283828b0960040983848384096008099150838385868d8e0960030908925083816002098484850981811015610ab05785015b03965086811015610abe5783015b83878203840995505080851015610ad457938201935b909303925080808688096002099150505b93509350939050565b600080600086600003610b08575084915083905082610c08565b83600003610b1d575087915086905085610c08565b600160601b63ffffffff60c01b0319808889098186870982818d0983838b0984858a85098e0985868e87098c09868b8f0884841015610b5b57928701925b848403935087846002098881820990508881860984841015610b7c57928901925b898585036002099350898485099c50898288099650898a8860020982089150818d1015610ba8579b89019b5b818d039c5089818b87600209099450508b861015610bc557948801945b888c870384099a50838b1015610bda57998801995b838b039a5088878908975088828309905087811015610bf65788015b88858983030999505050505050505050505b96509650969350505050565b600081841115610c245781840693505b60405160208152602080820152602060408201528460608201528360808201528260a082015260208160c08360056136b0fa808015610c665782519350610c6b565b600080fd5b5050509392505050565b60008082600003610c8b57506000905080610a1a565b6000610ca584600160601b63ffffffff60c01b031961091f565b90506000600160601b63ffffffff60c01b03198283099050600160601b63ffffffff60c01b03198188099350600160601b63ffffffff60c01b031980838309870992505050935093915050565b6040518061020001604052806010905b610d2660405180606001604052806000815260200160008152602001600081525090565b815260200190600190039081610d025790505090565b600080600060608486031215610d5157600080fd5b833567ffffffffffffffff811115610d6857600080fd5b84016101608187031215610d7b57600080fd5b95602085013595506040909401359392505050565b634e487b7160e01b600052604160045260246000fd5b604051601f8201601f1916810167ffffffffffffffff81118282101715610dcf57610dcf610d90565b604052919050565b600082601f830112610de857600080fd5b6040516040810181811067ffffffffffffffff82111715610e0b57610e0b610d90565b8060405250806040840185811115610e2257600080fd5b845b81811015610e3c578035835260209283019201610e24565b509195945050505050565b600067ffffffffffffffff821115610e6157610e61610d90565b50601f01601f191660200190565b600082601f830112610e8057600080fd5b8135610e93610e8e82610e47565b610da6565b818152846020838601011115610ea857600080fd5b816020850160208301376000918101602001919091529392505050565b600080600060808486031215610eda57600080fd5b610ee48585610dd7565b925060408401359150606084013567ffffffffffffffff811115610f0757600080fd5b610f1386828701610e6f565b9150509250925092565b6000808335601e19843603018112610f3457600080fd5b83018035915067ffffffffffffffff821115610f4f57600080fd5b602001915036819003821315610f6457600080fd5b9250929050565b60008060608385031215610f7e57600080fd5b610f888484610dd7565b9150604083013567ffffffffffffffff811115610fa457600080fd5b610fb085828601610e6f565b9150509250929050565b60005b83811015610fd5578181015183820152602001610fbd565b50506000910152565b6000610fec610e8e84610e47565b905082815283838301111561100057600080fd5b610125836020830184610fba565b600082601f83011261101f57600080fd5b61012583835160208501610fde565b600080600080600060a0868803121561104657600080fd5b8551945060208601519350604086015167ffffffffffffffff8082111561106c57600080fd5b818801915088601f83011261108057600080fd5b61108f89835160208501610fde565b945060608801519150808211156110a557600080fd5b6110b189838a0161100e565b935060808801519150808211156110c757600080fd5b506110d48882890161100e565b9150509295509295909350565b600084516110f3818460208901610fba565b845190830190611107818360208901610fba565b845191019061111a818360208801610fba565b0195945050505050565b60008251611136818460208701610fba565b9190910192915050565b60006020828403121561115257600080fd5b5051919050565b6000835161116b818460208801610fba565b9190910191825250602001919050565b634e487b7160e01b600052601160045260246000fd5b80820281158282048414176109195761091961117b565b634e487b7160e01b600052601260045260246000fd5b6000826111cd576111cd6111a8565b500490565b6000826111e1576111e16111a8565b500690565b6000600182016111f8576111f861117b565b5060010190565b818103818111156109195761091961117b565b634e487b7160e01b600052603260045260246000fd5b6000816112375761123761117b565b50600019019056fe4142434445464748494a4b4c4d4e4f505152535455565758595a6162636465666768696a6b6c6d6e6f707172737475767778797a303132333435363738392d5fa164736f6c6343000813000a",
  "devdoc": {
    "details": "A contract to test UserOp verification with WebAuthn. This contract is not safe for production since any public key (Q) can be used. We are only interested in using this to test Bundler tracing.",
    "kind": "dev",
    "methods": {
      "validateUserOp((address,uint256,bytes,bytes,uint256,uint256,uint256,uint256,uint256,bytes,bytes),bytes32,uint256)": {
        "details": "Must validate caller is the entryPoint.      Must validate the signature and nonce",
        "params": {
          "missingAccountFunds": "missing funds on the account's deposit in the entrypoint.      This is the minimum amount to transfer to the sender(entryPoint) to be able to make the call.      The excess is left as a deposit in the entrypoint, for future calls.      can be withdrawn anytime using \"entryPoint.withdrawTo()\"      In case there is a paymaster in the request (or the current deposit is high enough), this value will be zero.",
          "userOp": "the operation that is about to be executed.",
          "userOpHash": "hash of the user's request data. can be used as the basis for signature."
        },
        "returns": {
          "validationData": "packaged ValidationData structure. use `_packValidationData` and `_unpackValidationData` to encode and decode      <20-byte> sigAuthorizer - 0 for valid signature, 1 to mark signature failure,         otherwise, an address of an \"authorizer\" contract.      <6-byte> validUntil - last timestamp this operation is valid. 0 for \"indefinite\"      <6-byte> validAfter - first timestamp this operation is valid      If an account doesn't use time-range, it is enough to return SIG_VALIDATION_FAILED value (1) for signature failure.      Note that the validation code cannot use block.timestamp (or block.number) directly."
        }
      }
    },
    "title": "TestWebAuthnAccount",
    "version": 1
  },
  "userdoc": {
    "kind": "user",
    "methods": {
      "validateUserOp((address,uint256,bytes,bytes,uint256,uint256,uint256,uint256,uint256,bytes,bytes),bytes32,uint256)": {
        "notice": "Validate user's signature and nonce the entryPoint will make the call to the recipient only if this validation call returns successfully. signature failure should be reported by returning SIG_VALIDATION_FAILED (1). This allows making a \"simulation call\" without a valid signature Other failures (e.g. nonce mismatch, or invalid signature format) should still revert to signal failure."
      }
    },
    "version": 1
  },
  "storageLayout": {
    "storage": [],
    "types": null
  }
}