{
  "address": "0xE93ECa6595fe94091DC1af46aaC2A8b5D7990770",
  "abi": [
    {
      "inputs": [
        {
          "internalType": "contract IEntryPoint",
          "name": "_entryPoint",
          "type": "address"
        },
        {
          "internalType": "address",
          "name": "_owner",
          "type": "address"
        }
      ],
      "stateMutability": "nonpayable",
      "type": "constructor"
    },
    {
      "anonymous": false,
      "inputs": [
        {
          "indexed": true,
          "internalType": "address",
          "name": "previousOwner",
          "type": "address"
        },
        {
          "indexed": true,
          "internalType": "address",
          "name": "newOwner",
          "type": "address"
        }
      ],
      "name": "OwnershipTransferred",
      "type": "event"
    },
    {
      "inputs": [],
      "name": "POST_OP_GAS",
      "outputs": [
        {
          "internalType": "uint256",
          "name": "",
          "type": "uint256"
        }
      ],
      "stateMutability": "view",
      "type": "function"
    },
    {
      "inputs": [
        {
          "internalType": "uint32",
          "name": "unstakeDelaySec",
          "type": "uint32"
        }
      ],
      "name": "addStake",
      "outputs": [],
      "stateMutability": "payable",
      "type": "function"
    },
    {
      "inputs": [],
      "name": "deposit",
      "outputs": [],
      "stateMutability": "payable",
      "type": "function"
    },
    {
      "inputs": [],
      "name": "entryPoint",
      "outputs": [
        {
          "internalType": "contract IEntryPoint",
          "name": "",
          "type": "address"
        }
      ],
      "stateMutability": "view",
      "type": "function"
    },
    {
      "inputs": [],
      "name": "getDeposit",
      "outputs": [
        {
          "internalType": "uint256",
          "name": "",
          "type": "uint256"
        }
      ],
      "stateMutability": "view",
      "type": "function"
    },
    {
      "inputs": [
        {
          "components": [
            {
              "internalType": "address",
              "name": "sender",
              "type": "address"
            },
            {
              "internalType": "uint256",
              "name": "nonce",
              "type": "uint256"
            },
            {
              "internalType": "bytes",
              "name": "initCode",
              "type": "bytes"
            },
            {
              "internalType": "bytes",
              "name": "callData",
              "type": "bytes"
            },
            {
              "internalType": "uint256",
              "name": "callGasLimit",
              "type": "uint256"
            },
            {
              "internalType": "uint256",
              "name": "verificationGasLimit",
              "type": "uint256"
            },
            {
              "internalType": "uint256",
              "name": "preVerificationGas",
              "type": "uint256"
            },
            {
              "internalType": "uint256",
              "name": "maxFeePerGas",
              "type": "uint256"
            },
            {
              "internalType": "uint256",
              "name": "maxPriorityFeePerGas",
              "type": "uint256"
            },
            {
              "internalType": "bytes",
              "name": "paymasterAndData",
              "type": "bytes"
            },
            {
              "internalType": "bytes",
              "name": "signature",
              "type": "bytes"
            }
          ],
          "internalType": "struct UserOperation",
          "name": "userOp",
          "type": "tuple"
        },
        {
          "internalType": "uint48",
          "name": "validUntil",
          "type": "uint48"
        },
        {
          "internalType": "uint48",
          "name": "validAfter",
          "type": "uint48"
        },
        {
          "internalType": "address",
          "name": "erc20Token",
          "type": "address"
        },
        {
          "internalType": "uint256",
          "name": "exchangeRate",
          "type": "uint256"
        }
      ],
      "name": "getHash",
      "outputs": [
        {
          "internalType": "bytes32",
          "name": "",
          "type": "bytes32"
        }
      ],
      "stateMutability": "view",
      "type": "function"
    },
    {
      "inputs": [],
      "name": "owner",
      "outputs": [
        {
          "internalType": "address",
          "name": "",
          "type": "address"
        }
      ],
      "stateMutability": "view",
      "type": "function"
    },
    {
      "inputs": [
        {
          "internalType": "bytes",
          "name": "paymasterAndData",
          "type": "bytes"
        }
      ],
      "name": "parsePaymasterAndData",
      "outputs": [
        {
          "internalType": "uint48",
          "name": "validUntil",
          "type": "uint48"
        },
        {
          "internalType": "uint48",
          "name": "validAfter",
          "type": "uint48"
        },
        {
          "internalType": "address",
          "name": "erc20Token",
          "type": "address"
        },
        {
          "internalType": "uint256",
          "name": "exchangeRate",
          "type": "uint256"
        },
        {
          "internalType": "bytes",
          "name": "signature",
          "type": "bytes"
        }
      ],
      "stateMutability": "pure",
      "type": "function"
    },
    {
      "inputs": [
        {
          "internalType": "enum IPaymaster.PostOpMode",
          "name": "mode",
          "type": "uint8"
        },
        {
          "internalType": "bytes",
          "name": "context",
          "type": "bytes"
        },
        {
          "internalType": "uint256",
          "name": "actualGasCost",
          "type": "uint256"
        }
      ],
      "name": "postOp",
      "outputs": [],
      "stateMutability": "nonpayable",
      "type": "function"
    },
    {
      "inputs": [],
      "name": "renounceOwnership",
      "outputs": [],
      "stateMutability": "nonpayable",
      "type": "function"
    },
    {
      "inputs": [
        {
          "internalType": "address",
          "name": "sender",
          "type": "address"
        }
      ],
      "name": "senderNonce",
      "outputs": [
        {
          "internalType": "uint256",
          "name": "nonce",
          "type": "uint256"
        }
      ],
      "stateMutability": "view",
      "type": "function"
    },
    {
      "inputs": [
        {
          "internalType": "address",
          "name": "newOwner",
          "type": "address"
        }
      ],
      "name": "transferOwnership",
      "outputs": [],
      "stateMutability": "nonpayable",
      "type": "function"
    },
    {
      "inputs": [],
      "name": "unlockStake",
      "outputs": [],
      "stateMutability": "nonpayable",
      "type": "function"
    },
    {
      "inputs": [
        {
          "components": [
            {
              "internalType": "address",
              "name": "sender",
              "type": "address"
            },
            {
              "internalType": "uint256",
              "name": "nonce",
              "type": "uint256"
            },
            {
              "internalType": "bytes",
              "name": "initCode",
              "type": "bytes"
            },
            {
              "internalType": "bytes",
              "name": "callData",
              "type": "bytes"
            },
            {
              "internalType": "uint256",
              "name": "callGasLimit",
              "type": "uint256"
            },
            {
              "internalType": "uint256",
              "name": "verificationGasLimit",
              "type": "uint256"
            },
            {
              "internalType": "uint256",
              "name": "preVerificationGas",
              "type": "uint256"
            },
            {
              "internalType": "uint256",
              "name": "maxFeePerGas",
              "type": "uint256"
            },
            {
              "internalType": "uint256",
              "name": "maxPriorityFeePerGas",
              "type": "uint256"
            },
            {
              "internalType": "bytes",
              "name": "paymasterAndData",
              "type": "bytes"
            },
            {
              "internalType": "bytes",
              "name": "signature",
              "type": "bytes"
            }
          ],
          "internalType": "struct UserOperation",
          "name": "userOp",
          "type": "tuple"
        },
        {
          "internalType": "bytes32",
          "name": "userOpHash",
          "type": "bytes32"
        },
        {
          "internalType": "uint256",
          "name": "maxCost",
          "type": "uint256"
        }
      ],
      "name": "validatePaymasterUserOp",
      "outputs": [
        {
          "internalType": "bytes",
          "name": "context",
          "type": "bytes"
        },
        {
          "internalType": "uint256",
          "name": "validationData",
          "type": "uint256"
        }
      ],
      "stateMutability": "nonpayable",
      "type": "function"
    },
    {
      "inputs": [
        {
          "internalType": "address payable",
          "name": "withdrawAddress",
          "type": "address"
        }
      ],
      "name": "withdrawStake",
      "outputs": [],
      "stateMutability": "nonpayable",
      "type": "function"
    },
    {
      "inputs": [
        {
          "internalType": "address payable",
          "name": "withdrawAddress",
          "type": "address"
        },
        {
          "internalType": "uint256",
          "name": "amount",
          "type": "uint256"
        }
      ],
      "name": "withdrawTo",
      "outputs": [],
      "stateMutability": "nonpayable",
      "type": "function"
    }
  ],
  "transactionHash": "0xf0c603258bf1fa6a70fd98df98867293353619d58bb0eca54a9a40e658b118b4",
  "args": [
    "0x5FF137D4b0FDCD49DcA30c7CF57E578a026d2789",
    "0x8cF905C50F25A481171e7f5936625754d44A9537"
  ],
  "numDeployments": 1,
  "solcInputHash": "cad185ecf904d6959af7cd68e872cfb5",
  "bytecode": "0x60a06040523480156200001157600080fd5b50604051620018f6380380620018f68339810160408190526200003491620000c8565b8162000040336200005f565b6001600160a01b031660805262000057816200005f565b505062000107565b600080546001600160a01b038381166001600160a01b0319831681178455604051919092169283917f8be0079c531659141344cd1fd0a4f28419497f9722a3daafe3b4186f6b6457e09190a35050565b6001600160a01b0381168114620000c557600080fd5b50565b60008060408385031215620000dc57600080fd5b8251620000e981620000af565b6020840151909250620000fc81620000af565b809150509250929050565b6080516117a2620001546000396000818161023801528181610332015281816103c9015281816104ef01528181610583015281816105fa01528181610687015261089901526117a26000f3fe6080604052600436106100f35760003560e01c8063b0d691fe1161008a578063c399ec8811610059578063c399ec88146102a5578063d0e30db0146102ba578063f2fde38b146102c2578063f465c77e146102e257600080fd5b8063b0d691fe14610226578063b8202d8f1461025a578063bb9fe6bf14610270578063c23a5cea1461028557600080fd5b80638da5cb5b116100c65780638da5cb5b1461017557806394d4ad60146101a75780639c90b443146101d9578063a9a234091461020657600080fd5b80630396cb60146100f8578063205c28781461010d578063290da2ad1461012d578063715018a614610160575b600080fd5b61010b6101063660046111ee565b610310565b005b34801561011957600080fd5b5061010b610128366004611230565b61039b565b34801561013957600080fd5b5061014d610148366004611290565b61040d565b6040519081526020015b60405180910390f35b34801561016c57600080fd5b5061010b610470565b34801561018157600080fd5b506000546001600160a01b03165b6040516001600160a01b039091168152602001610157565b3480156101b357600080fd5b506101c76101c236600461134b565b610484565b6040516101579695949392919061138d565b3480156101e557600080fd5b5061014d6101f43660046113f0565b60016020526000908152604090205481565b34801561021257600080fd5b5061010b61022136600461140d565b6104cb565b34801561023257600080fd5b5061018f7f000000000000000000000000000000000000000000000000000000000000000081565b34801561026657600080fd5b5061014d6188b881565b34801561027c57600080fd5b5061010b6104e5565b34801561029157600080fd5b5061010b6102a03660046113f0565b61055c565b3480156102b157600080fd5b5061014d6105e2565b61010b610672565b3480156102ce57600080fd5b5061010b6102dd3660046113f0565b6106d4565b3480156102ee57600080fd5b506103026102fd36600461146d565b610769565b60405161015792919061150b565b61031861078d565b604051621cb65b60e51b815263ffffffff821660048201527f00000000000000000000000000000000000000000000000000000000000000006001600160a01b031690630396cb609034906024016000604051808303818588803b15801561037f57600080fd5b505af1158015610393573d6000803e3d6000fd5b505050505050565b6103a361078d565b60405163040b850f60e31b81526001600160a01b038381166004830152602482018390527f0000000000000000000000000000000000000000000000000000000000000000169063205c287890604401600060405180830381600087803b15801561037f57600080fd5b6000610418866107e7565b6001600160a01b0387351660009081526001602090815260409182902054915161044f9392469230928b918b918b918b910161152d565b60405160208183030381529060405280519060200120905095945050505050565b61047861078d565b6104826000610826565b565b6000808080368161049960946014898b61158b565b8101906104a691906115b5565b929850909650945092506104bd876094818b61158b565b915091509295509295509295565b6104d361088e565b6104df84848484610906565b50505050565b6104ed61078d565b7f00000000000000000000000000000000000000000000000000000000000000006001600160a01b031663bb9fe6bf6040518163ffffffff1660e01b8152600401600060405180830381600087803b15801561054857600080fd5b505af11580156104df573d6000803e3d6000fd5b61056461078d565b60405163611d2e7560e11b81526001600160a01b0382811660048301527f0000000000000000000000000000000000000000000000000000000000000000169063c23a5cea90602401600060405180830381600087803b1580156105c757600080fd5b505af11580156105db573d6000803e3d6000fd5b5050505050565b6040516370a0823160e01b81523060048201526000907f00000000000000000000000000000000000000000000000000000000000000006001600160a01b0316906370a0823190602401602060405180830381865afa158015610649573d6000803e3d6000fd5b505050506040513d601f19601f8201168201806040525081019061066d9190611602565b905090565b60405163b760faf960e01b81523060048201527f00000000000000000000000000000000000000000000000000000000000000006001600160a01b03169063b760faf99034906024016000604051808303818588803b1580156105c757600080fd5b6106dc61078d565b6001600160a01b03811661075d5760405162461bcd60e51b815260206004820152602660248201527f4f776e61626c653a206e6577206f776e657220697320746865207a65726f206160448201527f646472657373000000000000000000000000000000000000000000000000000060648201526084015b60405180910390fd5b61076681610826565b50565b6060600061077561088e565b6107808585856109c7565b915091505b935093915050565b6000546001600160a01b031633146104825760405162461bcd60e51b815260206004820181905260248201527f4f776e61626c653a2063616c6c6572206973206e6f7420746865206f776e65726044820152606401610754565b60603660006107fa61012085018561161b565b915091508360208184030360405194506020810185016040528085528082602087013750505050919050565b600080546001600160a01b038381167fffffffffffffffffffffffff0000000000000000000000000000000000000000831681178455604051919092169283917f8be0079c531659141344cd1fd0a4f28419497f9722a3daafe3b4186f6b6457e09190a35050565b336001600160a01b037f000000000000000000000000000000000000000000000000000000000000000016146104825760405162461bcd60e51b815260206004820152601560248201527f53656e646572206e6f7420456e747279506f696e7400000000000000000000006044820152606401610754565b60008080808061091887890189611662565b945094509450945094506000818303610932575081610941565b61093e83488401610c25565b90505b6000670de0b6b3a764000085610959846188b86116c9565b610963908b6116e0565b61096d91906116c9565b61097791906116f3565b905060028b600281111561098d5761098d611715565b146109ba576109ba876109a86000546001600160a01b031690565b6001600160a01b038916919084610c3f565b5050505050505050505050565b606060008080808036816109e26101c26101208d018d61161b565b9550955095509550955095508181905060401480610a005750604181145b610a74576040805162461bcd60e51b81526020600482015260248101919091527f566572696679696e675061796d61737465723a20696e76616c6964207369676e60448201527f6174757265206c656e67746820696e207061796d6173746572416e64446174616064820152608401610754565b6000610ad9610a868d8989898961040d565b6040517f19457468657265756d205369676e6564204d6573736167653a0a3332000000006020820152603c8101829052600090605c01604051602081830303815290604052805190602001209050919050565b6001600160a01b038d35166000908152600160205260408120805492935090610b018361172b565b909155505060408051602081019091526000815298506001600160a01b03851615610b7f57610b3360208d018d6113f0565b604080516001600160a01b039283166020820152918716908201526060810185905260e08d013560808201526101008d013560a082015260c00160405160208183030381529060405298505b610bbf8184848080601f016020809104026020016040519081016040528093929190818152602001838380828437600092019190915250610cae92505050565b6001600160a01b0316610bda6000546001600160a01b031690565b6001600160a01b031614610c055788610bf560018989610cd2565b9850985050505050505050610785565b88610c1260008989610cd2565b9850985050505050505050935093915050565b6000818310610c345781610c36565b825b90505b92915050565b604080516001600160a01b0385811660248301528416604482015260648082018490528251808303909101815260849091019091526020810180517bffffffffffffffffffffffffffffffffffffffffffffffffffffffff166323b872dd60e01b1790526104df908590610d0a565b6000806000610cbd8585610df4565b91509150610cca81610e39565b509392505050565b600060d08265ffffffffffff16901b60a08465ffffffffffff16901b85610cfa576000610cfd565b60015b60ff161717949350505050565b6000610d5f826040518060400160405280602081526020017f5361666545524332303a206c6f772d6c6576656c2063616c6c206661696c6564815250856001600160a01b0316610f839092919063ffffffff16565b805190915015610def5780806020019051810190610d7d9190611744565b610def5760405162461bcd60e51b815260206004820152602a60248201527f5361666545524332303a204552433230206f7065726174696f6e20646964206e60448201527f6f742073756363656564000000000000000000000000000000000000000000006064820152608401610754565b505050565b6000808251604103610e2a5760208301516040840151606085015160001a610e1e87828585610f9a565b94509450505050610e32565b506000905060025b9250929050565b6000816004811115610e4d57610e4d611715565b03610e555750565b6001816004811115610e6957610e69611715565b03610eb65760405162461bcd60e51b815260206004820152601860248201527f45434453413a20696e76616c6964207369676e617475726500000000000000006044820152606401610754565b6002816004811115610eca57610eca611715565b03610f175760405162461bcd60e51b815260206004820152601f60248201527f45434453413a20696e76616c6964207369676e6174757265206c656e677468006044820152606401610754565b6003816004811115610f2b57610f2b611715565b036107665760405162461bcd60e51b815260206004820152602260248201527f45434453413a20696e76616c6964207369676e6174757265202773272076616c604482015261756560f01b6064820152608401610754565b6060610f92848460008561105e565b949350505050565b6000807f7fffffffffffffffffffffffffffffff5d576e7357a4501ddfe92f46681b20a0831115610fd15750600090506003611055565b6040805160008082526020820180845289905260ff881692820192909252606081018690526080810185905260019060a0016020604051602081039080840390855afa158015611025573d6000803e3d6000fd5b5050604051601f1901519150506001600160a01b03811661104e57600060019250925050611055565b9150600090505b94509492505050565b6060824710156110d65760405162461bcd60e51b815260206004820152602660248201527f416464726573733a20696e73756666696369656e742062616c616e636520666f60448201527f722063616c6c00000000000000000000000000000000000000000000000000006064820152608401610754565b600080866001600160a01b031685876040516110f29190611766565b60006040518083038185875af1925050503d806000811461112f576040519150601f19603f3d011682016040523d82523d6000602084013e611134565b606091505b509150915061114587838387611150565b979650505050505050565b606083156111bf5782516000036111b8576001600160a01b0385163b6111b85760405162461bcd60e51b815260206004820152601d60248201527f416464726573733a2063616c6c20746f206e6f6e2d636f6e74726163740000006044820152606401610754565b5081610f92565b610f9283838151156111d45781518083602001fd5b8060405162461bcd60e51b81526004016107549190611782565b60006020828403121561120057600080fd5b813563ffffffff8116811461121457600080fd5b9392505050565b6001600160a01b038116811461076657600080fd5b6000806040838503121561124357600080fd5b823561124e8161121b565b946020939093013593505050565b6000610160828403121561126f57600080fd5b50919050565b803565ffffffffffff8116811461128b57600080fd5b919050565b600080600080600060a086880312156112a857600080fd5b853567ffffffffffffffff8111156112bf57600080fd5b6112cb8882890161125c565b9550506112da60208701611275565b93506112e860408701611275565b925060608601356112f88161121b565b949793965091946080013592915050565b60008083601f84011261131b57600080fd5b50813567ffffffffffffffff81111561133357600080fd5b602083019150836020828501011115610e3257600080fd5b6000806020838503121561135e57600080fd5b823567ffffffffffffffff81111561137557600080fd5b61138185828601611309565b90969095509350505050565b600065ffffffffffff80891683528088166020840152506001600160a01b038616604083015284606083015260a060808301528260a0830152828460c0840137600060c0848401015260c0601f19601f8501168301019050979650505050505050565b60006020828403121561140257600080fd5b81356112148161121b565b6000806000806060858703121561142357600080fd5b84356003811061143257600080fd5b9350602085013567ffffffffffffffff81111561144e57600080fd5b61145a87828801611309565b9598909750949560400135949350505050565b60008060006060848603121561148257600080fd5b833567ffffffffffffffff81111561149957600080fd5b6114a58682870161125c565b9660208601359650604090950135949350505050565b60005b838110156114d65781810151838201526020016114be565b50506000910152565b600081518084526114f78160208601602086016114bb565b601f01601f19169290920160200192915050565b60408152600061151e60408301856114df565b90508260208301529392505050565b60006101008083526115418184018c6114df565b602084019a909a5250506001600160a01b039687166040820152606081019590955265ffffffffffff93841660808601529190921660a0840152921660c082015260e00152919050565b6000808585111561159b57600080fd5b838611156115a857600080fd5b5050820193919092039150565b600080600080608085870312156115cb57600080fd5b6115d485611275565b93506115e260208601611275565b925060408501356115f28161121b565b9396929550929360600135925050565b60006020828403121561161457600080fd5b5051919050565b6000808335601e1984360301811261163257600080fd5b83018035915067ffffffffffffffff82111561164d57600080fd5b602001915036819003821315610e3257600080fd5b600080600080600060a0868803121561167a57600080fd5b85356116858161121b565b945060208601356116958161121b565b94979496505050506040830135926060810135926080909101359150565b634e487b7160e01b600052601160045260246000fd5b8082028115828204841417610c3957610c396116b3565b80820180821115610c3957610c396116b3565b60008261171057634e487b7160e01b600052601260045260246000fd5b500490565b634e487b7160e01b600052602160045260246000fd5b60006001820161173d5761173d6116b3565b5060010190565b60006020828403121561175657600080fd5b8151801515811461121457600080fd5b600082516117788184602087016114bb565b9190910192915050565b602081526000610c3660208301846114df56fea164736f6c6343000813000a",
  "devdoc": {
    "kind": "dev",
    "methods": {
      "addStake(uint32)": {
        "params": {
          "unstakeDelaySec": "- the unstake delay for this paymaster. Can only be increased."
        }
      },
      "owner()": {
        "details": "Returns the address of the current owner."
      },
      "postOp(uint8,bytes,uint256)": {
        "params": {
          "actualGasCost": "- actual gas used so far (without this postOp call).",
          "context": "- the context value returned by validatePaymasterUserOp",
          "mode": "enum with the following options:      opSucceeded - user operation succeeded.      opReverted  - user op reverted. still has to pay for gas.      postOpReverted - user op succeeded, but caused postOp (in mode=opSucceeded) to revert.                       Now this is the 2nd call, after user's op was deliberately reverted."
        }
      },
      "renounceOwnership()": {
        "details": "Leaves the contract without owner. It will not be possible to call `onlyOwner` functions anymore. Can only be called by the current owner. NOTE: Renouncing ownership will leave the contract without an owner, thereby removing any functionality that is only available to the owner."
      },
      "transferOwnership(address)": {
        "details": "Transfers ownership of the contract to a new account (`newOwner`). Can only be called by the current owner."
      },
      "validatePaymasterUserOp((address,uint256,bytes,bytes,uint256,uint256,uint256,uint256,uint256,bytes,bytes),bytes32,uint256)": {
        "params": {
          "maxCost": "the maximum cost of this transaction (based on maximum gas and gas price from userOp)",
          "userOp": "the user operation",
          "userOpHash": "hash of the user's request data."
        },
        "returns": {
          "context": "value to send to a postOp      zero length to signify postOp is not required.",
          "validationData": "signature and time-range of this operation, encoded the same as the return value of validateUserOperation      <20-byte> sigAuthorizer - 0 for valid signature, 1 to mark signature failure,         otherwise, an address of an \"authorizer\" contract.      <6-byte> validUntil - last timestamp this operation is valid. 0 for \"indefinite\"      <6-byte> validAfter - first timestamp this operation is valid      Note that the validation code cannot use block.timestamp (or block.number) directly."
        }
      },
      "withdrawStake(address)": {
        "params": {
          "withdrawAddress": "the address to send withdrawn value."
        }
      },
      "withdrawTo(address,uint256)": {
        "params": {
          "amount": "to withdraw",
          "withdrawAddress": "target to send to"
        }
      }
    },
    "version": 1
  },
  "userdoc": {
    "kind": "user",
    "methods": {
      "addStake(uint32)": {
        "notice": "add stake for this paymaster. This method can also carry eth value to add to the current stake."
      },
      "deposit()": {
        "notice": "add a deposit for this paymaster, used for paying for transaction fees"
      },
      "getDeposit()": {
        "notice": "return current paymaster's deposit on the entryPoint."
      },
      "postOp(uint8,bytes,uint256)": {
        "notice": "post-operation handler. Must verify sender is the entryPoint"
      },
      "unlockStake()": {
        "notice": "unlock the stake, in order to withdraw it. The paymaster can't serve requests once unlocked, until it calls addStake again"
      },
      "validatePaymasterUserOp((address,uint256,bytes,bytes,uint256,uint256,uint256,uint256,uint256,bytes,bytes),bytes32,uint256)": {
        "notice": "payment validation: check if paymaster agrees to pay. Must verify sender is the entryPoint. Revert to reject this request. Note that bundlers will reject this method if it changes the state, unless the paymaster is trusted (whitelisted) The paymaster pre-pays using its deposit, and receive back a refund after the postOp method returns."
      },
      "withdrawStake(address)": {
        "notice": "withdraw the entire paymaster's stake. stake must be unlocked first (and then wait for the unstakeDelay to be over)"
      },
      "withdrawTo(address,uint256)": {
        "notice": "withdraw value from the deposit"
      }
    },
    "notice": "A paymaster based on the eth-infinitism sample VerifyingPaymaster contract. It has the same functionality as the sample, but with added support for withdrawing ERC20 tokens. All withdrawn tokens will be transferred to the owner address. Note that the off-chain signer should have a strategy in place to handle a failed token withdrawal. See account-abstraction/contracts/samples/VerifyingPaymaster.sol for detailed comments.",
    "version": 1
  },
  "storageLayout": {
    "storage": [
      {
        "astId": 7,
        "contract": "contracts/VerifyingPaymaster.sol:VerifyingPaymaster",
        "label": "_owner",
        "offset": 0,
        "slot": "0",
        "type": "t_address"
      },
      {
        "astId": 3349,
        "contract": "contracts/VerifyingPaymaster.sol:VerifyingPaymaster",
        "label": "senderNonce",
        "offset": 0,
        "slot": "1",
        "type": "t_mapping(t_address,t_uint256)"
      }
    ],
    "types": {
      "t_address": {
        "encoding": "inplace",
        "label": "address",
        "numberOfBytes": "20"
      },
      "t_mapping(t_address,t_uint256)": {
        "encoding": "mapping",
        "key": "t_address",
        "label": "mapping(address => uint256)",
        "numberOfBytes": "32",
        "value": "t_uint256"
      },
      "t_uint256": {
        "encoding": "inplace",
        "label": "uint256",
        "numberOfBytes": "32"
      }
    }
  }
}